1020180713FINGER  KIS     1                                                                                                                                                                             
200000000000121298017600  01012341111         01012341111         123456782018071102         638679996         000000050000000000000000000000000000        4100   30000000000000000000,I                
200000000000221298017600  01087262079         01087262079         123456782018071102         638679997         000000020000000000000000000000000000        4100   20000000000000265008,I                
300000000020000000070000                                                                                                                                                                                
